:100000001DC02CC06EC02AC029C028C027C026C071
:1000100025C024C023C022C021C0B0C01FC01EC044
:1000200006C21CC01BC0DFC219C018C097C116C0D1
:100030006EC114C013C012C011C010C011241FBE65
:10004000CFEFD2E0DEBFCDBF21E0A0E0B1E001C044
:100050001D92A432B207E1F7E5D21AC6D1CFCF93F1
:10006000DF93CDB7DEB728970FB6F894DEBF0FBE8B
:10007000CDBF98878F8380E090E0A0EABBE38983BF
:100080009A83AB83BC838F819885CC01A0E0B0E0DC
:10009000BC01CD01A1D4DC01CB0129813A814B8186
:1000A0005C81BC01CD0126D5DC01CB0120E030E034
:1000B00048EC52E4BC01CD011DD5DC01CB01BC01F3
:1000C000CD0159D4DC01CB019E838D838D819E812E
:1000D00028960FB6F894DEBF0FBECDBFDF91CF914B
:1000E00008951F920F9200905F000F9211242F939A
:1000F0003F938F939F93EF93FF93CF93DF93CDB76E
:10010000DEB789E390E0FC018081882F90E0817068
:100110009927892B99F086E690E026E630E0F901F0
:1001200020812061FC01208386E690E026E630E015
:10013000F90120812B7FFC01208312C086E690E02C
:1001400026E630E0F90120812460FC01208386E668
:1001500090E026E630E0F90120812F7EFC0120832B
:10016000DF91CF91FF91EF919F918F913F912F91CF
:100170000F9000925F000F901F9018951F920F92A2
:1001800000905F000F9211242F933F934F935F9342
:100190006F937F938F939F93AF93BF93EF93FF934F
:1001A000CF93DF9300D000D0CDB7DEB780911001A0
:1001B00090911101843691050CF064C086E290E0C4
:1001C000FC01808191814BDF909315018093140194
:1001D0008091160190911701209114013091150121
:1001E000B901F3D4CC01A0E0B0E0BC01CD01F4D35F
:1001F000DC01CB0189839A83AB83BC8320E030E4AC
:100200004CE156E469817A818B819C814CD3DC017D
:10021000CB0189839A83AB83BC8380911801909131
:100220001901A0911A01B0911B0129813A814B81DA
:100230005C81BC01CD01D3D2DC01CB0180931801DC
:1002400090931901A0931A01B0931B0180911001A2
:10025000909111010196909311018093100189E210
:1002600090E029E230E0F901308121E02327FC0110
:100270002083809114019091150190931701809330
:1002800016012DC08091180190911901A0911A01B9
:10029000B0911B0120E030E046EC52E4BC01CD01FE
:1002A00002D3DC01CB0180931C0190931D01A0932C
:1002B0001E01B0931F0110921701109216011092A7
:1002C0001501109214011092110110921001109258
:1002D00018011092190110921A0110921B010F902F
:1002E0000F900F900F90DF91CF91FF91EF91BF9101
:1002F000AF919F918F917F916F915F914F913F91BE
:100300002F910F9000925F000F901F9018951F92F1
:100310000F9200905F000F9211242F933F938F93C1
:100320009F93EF93FF93CF93DF93CDB7DEB785E82D
:1003300090E025E830E0F90120812061FC01208374
:10034000DF91CF91FF91EF919F918F913F912F91ED
:100350000F9000925F000F901F9018951F920F92C0
:1003600000905F000F9211242F933F934F935F9360
:100370006F937F938F939F93AF93BF93EF93FF936D
:10038000CF93DF93CDB7DEB780910001909101014B
:1003900020E830E0F9012081805E9E4FFC0120833F
:1003A0008091000190910101019690930101809349
:1003B000000180912201833371F0809102019091BC
:1003C0000301846090930301809302011092010164
:1003D0001092000118C080910001909101010196D6
:1003E000909301018093000180910001909101019F
:1003F00086974CF480913501CED180913601CBD1D6
:1004000080913701C8D1DF91CF91FF91EF91BF91DA
:10041000AF919F918F917F916F915F914F913F919C
:100420002F910F9000925F000F901F9018951F92D0
:100430000F9200905F000F9211242F933F934F93E0
:100440005F936F937F938F939F93AF93BF93EF933C
:10045000FF93CF93DF93CDB7DEB72897DEBFCDBF35
:1004600086E390E0FC018081882F90E084709927DA
:10047000892BE1F010920F0110920E0180EC90E0B8
:10048000FC018081918190930B0180930A0110926D
:100490000D0110920C0189EC90E029EC30E0F9019B
:1004A000308120E42327FC01208383C08091120146
:1004B000909113010196909313018093120180ECA7
:1004C00090E0FC018081918190930D0180930C015B
:1004D00080910E0190910F01CC01A0E0B0E0AC0141
:1004E0003327222780910A0190910B01CC01A0E0D3
:1004F000B0E0281B390B4A0B5B0B80910C019091EB
:100500000D01CC01A0E0B0E0280F391F4A1F5B1F8E
:1005100088E39CE9ACE1B0E0BC01CD017BD3DA011A
:10052000C9019A83898380911201909113010C97DC
:100530006CF4209106013091070189819A81820F24
:10054000931F909307018093060123C080910601B9
:10055000909107012CE030E0B90148D3CB01909392
:10056000050180930401809104019091050120ED23
:1005700037E0A901481B590BCA01909309018093E8
:1005800008011092130110921201109207011092AB
:10059000060110920B0110920A011A82198289EC4D
:1005A00090E029EC30E0F901308120E42327FC01C0
:1005B000208328960FB6F894DEBF0FBECDBFDF9123
:1005C000CF91FF91EF91BF91AF919F918F917F91CB
:1005D0006F915F914F913F912F910F9000925F002B
:1005E0000F901F9018951F920F9200905F000F922E
:1005F00011248F939F93CF93DF93CDB7DEB7809174
:100600000E0190910F01019690930F0180930E01BE
:10061000DF91CF919F918F910F9000925F000F908B
:100620001F901895CF93DF9300D000D0CDB7DEB7E1
:100630008AE390E02AE330E0F9012081286AFC0196
:1006400020838AE390E02AE330E0F90120812E7FC5
:10065000FC01208387E390E027E330E0F90120816B
:100660002C7FFC01208383E690E021E0FC012083C5
:10067000F89482E390E022E330E0F90120812160E8
:10068000FC0120838BE590E02BE530E0F90120812F
:100690002061FC01208307D067D078941A821982E8
:1006A0001C821B82FFCFCF93DF93CDB7DEB78EE4E2
:1006B00090E02EE430E0F90120812965FC012083DF
:1006C0008FE490E02FE430E0F90120812362FC0107
:1006D000208388E690E028E630E0F901208121605F
:1006E000FC01208387E690E027E630E0F9012081D5
:1006F0002061FC01208386E690E026E630E0F901E7
:1007000020812061FC01208381E390E021E330E03F
:10071000F90120812162FC01208389EC90E029EC21
:1007200030E0F90120812364FC0120838AEC90E011
:100730002AEC30E0F90120812062FC01208382E56F
:1007400090E0FC0110828AE490E02AE031E0FC01B4
:100750003183208388E490E02AE130E0FC0131839A
:100760002083DF91CF910895CF93DF93CDB7DEB78C
:1007700081E890E023E330E0FC013183208385E8C9
:1007800090E025E830E0F9012081286DFC0120830C
:10079000DF91CF910895CF93DF931F92CDB7DEB74E
:1007A000898385E890E025E830E0F90120812F7EFB
:1007B000FC012083000086E890E0FC018081882F06
:1007C00090E080729927892BB1F380E890E029812D
:1007D000FC0120830F90DF91CF9108955058BB27E3
:1007E000AA270ED04DC13ED130F043D120F031F4D4
:1007F0009F3F11F41EF433C10EF4E095E7FB29C1CD
:10080000E92F4FD180F3BA17620773078407950762
:1008100018F071F49EF567C10EF4E0950B2EBA2F17
:10082000A02D0B01B90190010C01CA01A0011124F6
:10083000FF27591B99F0593F50F4503E68F11A16A2
:10084000F040A22F232F342F4427585FF3CF469533
:1008500037952795A795F0405395C9F77EF41F1655
:10086000BA0B620B730B840BBAF09150A1F0FF0F1F
:10087000BB1F661F771F881FC2F70EC0BA0F621F0B
:10088000731F841F48F4879577956795B795F795FB
:100890009E3F08F0B3CF9395880F08F09927EE0F8D
:1008A0009795879508950CD0EBC0E3D040F0DAD04F
:1008B00030F021F45F3F19F0CCC0511115C1CFC009
:1008C000F0D098F39923C9F35523B1F3951B550B39
:1008D000BB27AA2762177307840738F09F5F5F4F13
:1008E000220F331F441FAA1FA9F333D00E2E3AF054
:1008F000E0E830D091505040E695001CCAF729D06E
:10090000FE2F27D0660F771F881FBB1F26173707BC
:100910004807AB07B0E809F0BB0B802DBF01FF27EC
:1009200093585F4F2AF09E3F510568F092C0DCC09B
:100930005F3FECF3983EDCF3869577956795B79526
:10094000F7959F5FC9F7880F911D9695879597F941
:100950000895E1E0660F771F881FBB1F62177307BA
:100960008407BA0720F0621B730B840BBA0BEE1FCF
:1009700088F7E095089504D06894B111B5C0089542
:1009800098D088F09F5790F0B92F9927B751A0F0D1
:10099000D1F0660F771F881F991F1AF0BA95C9F713
:1009A00012C0B13081F09FD0B1E008959CC0672F94
:1009B000782F8827B85F39F0B93FCCF386957795C3
:1009C0006795B395D9F73EF49095809570956195AC
:1009D0007F4F8F4F9F4F0895E89409C097FB3EF4D7
:1009E00090958095709561957F4F8F4F9F4F99237C
:1009F000A9F0F92F96E9BB279395F69587957795FA
:100A00006795B795F111F8CFFAF4BB0F11F460FFB9
:100A10001BC06F5F7F4F8F4F9F4F16C0882311F011
:100A200096E911C0772321F09EE8872F762F05C025
:100A3000662371F096E8862F70E060E02AF09A95C0
:100A4000660F771F881FDAF7880F9695879597F9B5
:100A5000089597F99F6780E870E060E008959FEF40
:100A600080EC089500240A94161617061806090645
:100A7000089500240A941216130614060506089514
:100A8000092E0394000C11F4882352F0BB0F40F49C
:100A9000BF2B11F460FF04C06F5F7F4F8F4F9F4FDC
:100AA000089557FD9058440F551F59F05F3F71F05E
:100AB0004795880F97FB991F61F09F3F79F08795C5
:100AC0000895121613061406551FF2CF4695F1DF4E
:100AD00008C0161617061806991FF1CF86957105DE
:100AE000610508940895E894BB2766277727CB0112
:100AF00097F908950AD0C4CFB5DF28F0BADF18F00F
:100B0000952309F0A6CFABCFEFCFCBDFA8F3992386
:100B1000D9F35523C9F3950F50E0551FAA27EE27A7
:100B2000FF27BB2700240894679520F4E20FF31FEA
:100B3000B41F0A1E220F331F441FAA1F6695A9F770
:100B4000779530F4F30FB41F0A1E121E08F4639554
:100B5000330F441FAA1F221F769599F7879520F41B
:100B6000B40F0A1E121E631F440FAA1F221F331F39
:100B70008695A9F7862F712D602D11249F5750401F
:100B80008AF0E1F088234AF0EE0FFF1FBB1F661FBB
:100B9000771F881F91505040A9F79E3F510570F074
:100BA00058CFA2CF5F3FECF3983EDCF38695779564
:100BB0006795B795F795E7959F5FC1F7FE2B880F6F
:100BC000911D9695879597F908950024552704C09F
:100BD000080E591F880F991F009729F07695679581
:100BE000B8F37105B9F7802D952F0895AA1BBB1B8B
:100BF00051E107C0AA1FBB1FA617B70710F0A61B1D
:100C0000B70B881F991F5A95A9F780959095BC013D
:100C1000CD010895052E97FB16F400940FD057FDD3
:100C200005D014D007FC02D046F408C0509540957A
:100C3000309521953F4F4F4F5F4F08959095809588
:100C4000709561957F4F8F4F9F4F0895A1E21A2EA7
:100C5000AA1BBB1BFD010DC0AA1FBB1FEE1FFF1F60
:100C6000A217B307E407F50720F0A21BB30BE40BB0
:100C7000F50B661F771F881F991F1A9469F76095F7
:100C80007095809590959B01AC01BD01CF010895B1
:040C9000F894FFCF06
:00000001FF
