S01200003331315F53616D706C652E73726563BC
S11300001DC037C079C035C034C033C032C031C020
S113001030C02FC02EC02DC02CC0BBC02AC029C0E8
S11300200DC227C026C0E6C224C023C0A2C121C07D
S113003079C11FC01EC01DC01CC01BC011241FBE1F
S1130040CFEFD2E0DEBFCDBF11E0A0E0B1E0E2E649
S1130050F5E102C005900D92A830B107D9F721E06F
S1130060A8E0B1E001C01D92A233B207E1F7E1D2EA
S113007076CAC6CFCF93DF93CDB7DEB728970FB636
S1130080F894DEBF0FBECDBF98878F8380E090E0E9
S1130090A0EABBE389839A83AB83BC838F81988571
S11300A0CC01A0E0B0E0BC01CD012CD6DC01CB0139
S11300B029813A814B815C81BC01CD01B1D6DC013F
S11300C0CB0120E030E048EC52E4BC01CD01A8D6DD
S11300D0DC01CB01BC01CD01E4D5DC01CB019E8365
S11300E08D838D819E8128960FB6F894DEBF0FBE56
S11300F0CDBFDF91CF9108951F920F9200905F00C2
S11301000F9211242F933F938F939F93EF93FF9319
S1130110CF93DF93CDB7DEB789E390E0FC01808114
S1130120882F90E081709927892B99F086E690E0DA
S113013026E630E0F90120812061FC01208386E677
S113014090E026E630E0F90120812B7FFC0120833A
S113015012C086E690E026E630E0F90120812460B2
S1130160FC01208386E690E026E630E0F901208158
S11301702F7EFC012083DF91CF91FF91EF919F911E
S11301808F913F912F910F9000925F000F901F90DD
S113019018951F920F9200905F000F9211242F93D5
S11301A03F934F935F936F937F938F939F93AF93FB
S11301B0BF93EF93FF93CF93DF9300D000D0CDB7DD
S11301C0DEB78091160190911701843691050CF0E9
S11301D064C086E290E0FC01808191814BDF9093C2
S11301E01B0180931A0180911C0190911D012091A3
S11301F01A0130911B01B9017ED6CC01A0E0B0E018
S1130200BC01CD017FD5DC01CB0189839A83AB830B
S1130210BC8320E030E44CE156E469817A818B812F
S11302209C81D7D4DC01CB0189839A83AB83BC83C3
S113023080911E0190911F01A0912001B091210194
S113024029813A814B815C81BC01CD015ED4DC0102
S1130250CB0180931E0190931F01A0932001B093C2
S11302602101809116019091170101969093170135
S11302708093160189E290E029E230E0F9013081AF
S113028021E02327FC01208380911A0190911B0116
S113029090931D0180931C012DC080911E019091AB
S11302A01F01A0912001B091210120E030E046EC33
S11302B052E4BC01CD018DD4DC01CB018093220139
S11302C090932301A0932401B093250110921D0162
S11302D010921C0110921B0110921A011092170126
S11302E01092160110921E0110921F01109220010B
S11302F0109221010F900F900F900F90DF91CF91EA
S1130300FF91EF91BF91AF919F918F917F916F91E9
S11303105F914F913F912F910F9000925F000F904A
S11303201F9018951F920F9200905F000F92112456
S11303302F933F938F939F93EF93FF93CF93DF93E9
S1130340CDB7DEB785E890E025E830E0F9012081FB
S11303502061FC012083DF91CF91FF91EF919F9168
S11303608F913F912F910F9000925F000F901F90FB
S113037018951F920F9200905F000F9211242F93F3
S11303803F934F935F936F937F938F939F93AF9319
S1130390BF93EF93FF93CF93DF93CDB7DEB78091F5
S11303A008019091090120E830E0F9012081825D83
S11303B09E4FFC01208380910801909109010196D0
S11303C0909309018093080180910801909109019B
S11303D0879701F51092090110920801809130016C
S11303E0833359F080910A0190910B0184609093BA
S11303F00B0180930A010AD30DC02091450190910D
S1130400440180914301422F692F07D39093010146
S113041080930001DF91CF91FF91EF91BF91AF9154
S11304209F918F917F916F915F914F913F912F9108
S11304300F9000925F000F901F9018951F920F92DB
S113044000905F000F9211242F933F934F935F937B
S11304506F937F938F939F93AF93BF93EF93FF9388
S1130460CF93DF93CDB7DEB72897DEBFCDBF86E34A
S113047090E0FC018081882F90E084709927892B7B
S1130480E1F0109215011092140180EC90E0FC014F
S11304908081918190931101809310011092130136
S11304A01092120189EC90E029EC30E0F9013081DE
S11304B020E42327FC01208383C0809118019091BC
S11304C019010196909319018093180180EC90E032
S11304D0FC0180819181909313018093120180919A
S11304E0140190911501CC01A0E0B0E0AC013327D8
S11304F022278091100190911101CC01A0E0B0E07D
S1130500281B390B4A0B5B0B80911201909113014C
S1130510CC01A0E0B0E0280F391F4A1F5B1F88E31D
S11305209CE9ACE1B0E0BC01CD010AD5DA01C90116
S11305309A83898380911801909119010C976CF426
S113054020910E0130910F0189819A81820F931FAE
S113055090930F0180930E0123C080910E0190911E
S11305600F012BE030E0B901D7D4CB0190930D01FA
S113057080930C0180910C0190910D0122EB32E0EB
S1130580A901481B590BCA019093030180930201EE
S1130590109219011092180110920F0110920E017D
S11305A010921101109210011A82198289EC90E0C4
S11305B029EC30E0F901308120E42327FC01208379
S11305C028960FB6F894DEBF0FBECDBFDF91CF9152
S11305D0FF91EF91BF91AF919F918F917F916F9117
S11305E05F914F913F912F910F9000925F000F9078
S11305F01F9018951F920F9200905F000F92112484
S11306008F939F93CF93DF93CDB7DEB7809114017F
S11306109091150101969093150180931401DF9137
S1130620CF919F918F910F9000925F000F901F9038
S11306301895EF92FF920F931F93CF93DF93CDB74B
S1130640DEB78AE390E02AE330E0F9012081286AEA
S1130650FC0120838AE390E02AE330E0F901208161
S11306602E7FFC01208387E390E027E330E0F9014B
S113067020812C7FFC01208383E690E021E0FC01B3
S11306802083F89482E390E022E330E0F9012081B2
S11306902160FC0120838BE590E02BE530E0F9013B
S11306A020812061FC01208316D176D17894809139
S11306B0260190912701A0912801B0912901BC0144
S11306C0CD01EFD2DC01CB018C0180912A01909104
S11306D02B01A0912C01B0912D01BC01CD01E1D2DF
S11306E0DC01CB019C018091020190910301A801DE
S11306F0B90145D08091020190910301092E000CAB
S1130700AA0BBB0BBC01CD01FFD2DC01CB0122E55E
S113071039E44DE159E3BC01CD0182D3DC01CB01C5
S11307207C018D0180912A0190912B01A0912C01D3
S1130730B0912D019C01AD01C801B701E6D1DC01E6
S1130740CB0180932A0190932B01A0932C01B093A9
S11307502D018091020190910301092E000CAA0B36
S1130760BB0BBC01CD01D0D2DC01CB0180932601AF
S113077090932701A0932801B093290198CFCF9398
S1130780DF93CDB7DEB767970FB6F894DEBF0FBE21
S1130790CDBF9B8B8A8B7D8B6C8B5F8B4E8B8A89B9
S11307A09B89092E000CAA0BBB0BBC01CD01ACD25A
S11307B0DC01CB012CEE31E548E35DE3BC01CD0166
S11307C02FD3DC01CB018B839C83AD83BE838C89C7
S11307D09D89092E000CAA0BBB0BBC01CD0194D240
S11307E0DC01CB018F839887A987BA872A893B8943
S11307F08E899F89A901481B590BCA019C878B8745
S11308002F81388549855A856B817C818D819E81B4
S11308107CD1DC01CB01BC01CD0143D2DC01CB0195
S11308209A83898389819A818C3091402CF08BE062
S113083091E09A83898306C089819A81992314F46B
S11308401A82198225E0CE010D96FC01322F1192F5
S11308503A95E9F78A858F9389858F9388858F9355
S11308608F818F9384E091E0892F8F9384E091E0CE
S11308708F93CE010D96292F2F938F939FD34DB72E
S11308805EB7485F5F4F0FB6F894DEBF0FBECDBFB3
S11308908D85882F90E097D08E85882F90E093D017
S11308A08F85882F90E08FD08889882F90E08BD017
S11308B080E290E088D088E490E029813A81FC01CC
S11308C03183208367960FB6F894DEBF0FBECDBF89
S11308D0DF91CF910895CF93DF93CDB7DEB78EE448
S11308E090E02EE430E0F90120812965FC012083A9
S11308F08FE490E02FE430E0F90120812362FC01D1
S1130900208388E690E028E630E0F9012081216028
S1130910FC01208387E690E027E630E0F90120819E
S11309202061FC01208386E690E026E630E0F901B0
S113093020812061FC01208381E390E021E330E009
S1130940F90120812162FC01208389EC90E029ECEB
S113095030E0F90120812364FC0120838AEC90E0DB
S11309602AEC30E0F90120812062FC01208382E539
S113097090E0FC0110828AE490E02AE031E0FC017E
S11309803183208388E490E02BE031E0FC01318363
S11309902083DF91CF910895CF93DF93CDB7DEB756
S11309A081E890E023E330E0FC013183208385E893
S11309B090E025E830E0F9012081286DFC012083D6
S11309C0DF91CF910895CF93DF931F92CDB7DEB718
S11309D0898385E890E025E830E0F90120812F7EC5
S11309E0FC012083000086E890E0FC018081882FD0
S11309F090E080729927892BB1F380E890E02981F7
S1130A00FC0120830F90DF91CF910895CF93DF9362
S1130A10CDB7DEB7DF91CF910895CF93DF9300D0A8
S1130A2000D01F92CDB7DEB78B836C834D838B814F
S1130A30882F90E09C0120533109C901880F991F28
S1130A4082959295907F9827807F9827821B930B9D
S1130A50880F991F880F991F820F931F880F991F62
S1130A60880F991F880F991FBC018C81882F90E0F3
S1130A709C0120533109C901880F991F820F931FCC
S1130A80AC01440F551F42955295507F5427407F27
S1130A905427840F951F820F931FAB01480F591FD2
S1130AA08D81882F90E09C0120533109C901880F62
S1130AB0991F880F991F820F931F880F991F840F06
S1130AC0951F9A83898389819A818C32914054F449
S1130AD089819A81892B19F480E090E00DC08CE221
S1130AE091E00AC089819A818D389A401CF08CE883
S1130AF09AE002C089819A810F900F900F900F9015
S1130B000F90DF91CF9108955058BB27AA270ED09C
S1130B104DC13ED130F043D120F031F49F3F11F468
S1130B201EF433C10EF4E095E7FB29C1E92F4FD140
S1130B3080F3BA17620773078407950718F071F4F6
S1130B409EF567C10EF4E0950B2EBA2FA02D0B0174
S1130B50B90190010C01CA01A0011124FF27591BFE
S1130B6099F0593F50F4503E68F11A16F040A22F04
S1130B70232F342F4427585FF3CF46953795279575
S1130B80A795F0405395C9F77EF41F16BA0B620B74
S1130B90730B840BBAF09150A1F0FF0FBB1F661FBB
S1130BA0771F881FC2F70EC0BA0F621F731F841FFE
S1130BB048F4879577956795B795F7959E3F08F024
S1130BC0B3CF9395880F08F09927EE0F97958795E3
S1130BD008950CD0EBC0E3D040F0DAD030F021F42B
S1130BE05F3F19F0CCC0511115C1CFC0F0D098F3BC
S1130BF09923C9F35523B1F3951B550BBB27AA279A
S1130C0062177307840738F09F5F5F4F220F331F0B
S1130C10441FAA1FA9F333D00E2E3AF0E0E830D0D7
S1130C2091505040E695001CCAF729D0FE2F27D0DA
S1130C30660F771F881FBB1F261737074807AB07A8
S1130C40B0E809F0BB0B802DBF01FF2793585F4F1D
S1130C502AF09E3F510568F092C0DCC05F3FECF380
S1130C60983EDCF3869577956795B795F7959F5FE2
S1130C70C9F7880F911D9695879597F90895E1E036
S1130C80660F771F881FBB1F621773078407BA0795
S1130C9020F0621B730B840BBA0BEE1F88F7E095F0
S1130CA0089504D06894B111B5C0089598D088F01F
S1130CB09F5790F0B92F9927B751A0F0D1F0660F44
S1130CC0771F881F991F1AF0BA95C9F712C0B1305F
S1130CD081F09FD0B1E008959CC0672F782F8827BA
S1130CE0B85F39F0B93FCCF3869577956795B3959E
S1130CF0D9F73EF490958095709561957F4F8F4F0D
S1130D009F4F0895E89409C097FB3EF49095809511
S1130D10709561957F4F8F4F9F4F9923A9F0F92FBD
S1130D2096E9BB279395F695879577956795B7953B
S1130D30F111F8CFFAF4BB0F11F460FF1BC06F5F21
S1130D407F4F8F4F9F4F16C0882311F096E911C033
S1130D50772321F09EE8872F762F05C0662371F054
S1130D6096E8862F70E060E02AF09A95660F771F68
S1130D70881FDAF7880F9695879597F9089597F95C
S1130D809F6780E870E060E008959FEF80EC08952D
S1130D9000240A9416161706180609060895002456
S1130DA00A9412161306140605060895092E0394D0
S1130DB0000C11F4882352F0BB0F40F4BF2B11F444
S1130DC060FF04C06F5F7F4F8F4F9F4F089557FDA3
S1130DD09058440F551F59F05F3F71F04795880FA5
S1130DE097FB991F61F09F3F79F08795089512163C
S1130DF013061406551FF2CF4695F1DF08C01616E8
S1130E0017061806991FF1CF869571056105089498
S1130E100895E894BB2766277727CB0197F90895AF
S1130E200AD0C4CFB5DF28F0BADF18F0952309F053
S1130E30A6CFABCFEFCFCBDFA8F39923D9F35523BC
S1130E40C9F3950F50E0551FAA27EE27FF27BB27AC
S1130E5000240894679520F4E20FF31FB41F0A1EC0
S1130E60220F331F441FAA1F6695A9F7779530F404
S1130E70F30FB41F0A1E121E08F46395330F441FA8
S1130E80AA1F221F769599F7879520F4B40F0A1E9E
S1130E90121E631F440FAA1F221F331F8695A9F732
S1130EA0862F712D602D11249F5750408AF0E1F058
S1130EB088234AF0EE0FFF1FBB1F661F771F881F92
S1130EC091505040A9F79E3F510570F058CFA2CFE2
S1130ED05F3FECF3983EDCF3869577956795B7957D
S1130EE0F795E7959F5FC1F7FE2B880F911D9695A7
S1130EF0879597F908950024552704C0080E591FB3
S1130F00880F991F009729F076956795B8F37105B6
S1130F10B9F7802D952F0895AA1BBB1B51E107C07B
S1130F20AA1FBB1FA617B70710F0A61BB70B881F75
S1130F30991F5A95A9F780959095BC01CD01089504
S1130F40052E97FB16F400940FD057FD05D014D04E
S1130F5007FC02D046F408C0509540953095219581
S1130F603F4F4F4F5F4F08959095809570956195D1
S1130F707F4F8F4F9F4F0895A1E21A2EAA1BBB1BD0
S1130F80FD010DC0AA1FBB1FEE1FFF1FA217B30751
S1130F90E407F50720F0A21BB30BE40BF50B661F67
S1130FA0771F881F991F1A9469F76095709580952B
S1130FB090959B01AC01BD01CF010895AEE0B0E076
S1130FC0E3EEF7E0A3C20D891E8986E08C831A83C1
S1130FD009838FEF9FE79E838D83AE01475E5F4F4A
S1130FE06F89788DCE01019609D02F813885F8015B
S1130FF0E20FF31F10822E96E4E0A4C2ACE0B0E04E
S1131000E3E0F8E075C27C016B018A01FC01178200
S11310101682838181FFB0C1CE0101964C01F70194
S11310209381F60193FD859193FF81916F0188234C
S113103009F49EC1853239F493FD859193FF819122
S11310406F01853221F4B70190E0B1D1E8CF512C82
S1131050312C20E02032A0F48B3269F030F480325D
S113106059F0833269F420612CC08D3239F0803319
S113107039F4216026C02260246023C0286021C086
S113108027FD27C030ED380F3A3078F426FF06C02C
S1131090852D6AE024D2582E530E13C0832D6AE0A6
S11310A01ED2382E330E20620CC08E3221F426FD5F
S11310B05FC1206406C08C3611F4206802C08836F3
S11310C041F4F60193FD859193FF81916F018111A4
S11310D0C1CF982F9F7D9554933028F40C5F1F4FF8
S11310E0FFE3F9830DC0833631F0833771F0833524
S11310F009F057C021C0F801808189830E5F1F4F1A
S113110044244394512C540114C03801F2E06F0E6E
S1131110711CF801A080B18026FF03C0652D70E02A
S113112002C06FEF7FEFC5012C8736D12C018301FC
S11311302C852F77222E16C03801F2E06F0E711C19
S1131140F801A080B18026FF03C0652D70E002C0C5
S11311506FEF7FEFC5012C8714D12C012C852068FB
S1131160222E830123FC19C0832D90E048165906D2
S1131170A0F4B70180E290E01AD13A94F5CFF501DA
S113118027FC859127FE81915F01B70190E00FD183
S113119031103A94F1E04F1A51084114510479F78F
S11311A0DEC0843611F0893631F5F80127FF07C017
S11311B060817181828193810C5F1F4F08C06081BF
S11311C07181072E000C880B990B0E5F1F4F2F7631
S11311D0722E97FF09C090958095709561957F4F09
S11311E08F4F9F4F2068722E2AE030E0A40117D160
S11311F0A82EA81843C0853729F42F7EB22E2AE0E2
S113120030E025C0F22FF97FBF2E8F36C1F018F4DD
S1131210883579F0ADC0803719F0883721F0A8C03F
S11312202F2F2061B22EB4FE0DC08B2D8460B82EFA
S113123009C024FF0AC09F2F9660B92E06C028E07B
S113124030E005C020E130E002C020E132E0F801E6
S1131250B7FE07C060817181828193810C5F1F4F4B
S113126006C06081718180E090E00E5F1F4FA40191
S1131270D6D0A82EA818FB2DFF777F2E76FE0BC0A4
S1131280372D3E7FA51450F474FE0AC072FC08C0CA
S1131290372D3E7E05C0BA2C372D03C0BA2C01C0B1
S11312A0B52C34FF0DC0FE01EA0DF11D80818033A1
S11312B011F4397E09C032FF06C0B394B39404C05C
S11312C0832F867809F0B39433FD12C030FF06C033
S11312D05A2CB31418F4530C5B18B32CB31460F4E5
S11312E0B70180E290E03C8762D0B3943C85F6CFAE
S11312F0B31410F43B1801C0312C34FF11C0B701F2
S113130080E390E03C8753D03C8532FF16C031FD2A
S113131003C088E790E002C088E590E0B7010CC004
S1131320832F867851F031FF02C08BE201C080E246
S113133037FD8DE2B70190E03AD0A51430F4B7013F
S113134080E390E034D05A94F8CFAA94F401EA0DE3
S1131350F11D8081B70190E02AD0A110F6CF33208F
S113136009F45DCEB70180E290E021D03A94F7CF42
S1131370F7018681978102C08FEF9FEF2C96E2E1FF
S1131380D3C0FC010590615070400110D8F78095DE
S113139090958E0F9F1F0895FC016150704001903D
S11313A00110D8F7809590958E0F9F1F08950F9385
S11313B01F93CF93DF93FB01238121FD03C08FEFA4
S11313C09FEF28C022FF16C04681578124813581B2
S11313D04217530744F4A081B1819D012F5F3F4F11
S11313E0318320838C93268137812F5F3F4F37834E
S11313F0268310C0EB01092F182F0084F185E02DFE
S11314000995892BE1F68E819F8101969F838E83B6
S1131410812F902FDF91CF911F910F910895FA01A1
S1131420AA27283061F1203191F1E8946F936E7FFF
S11314306E5F7F4F8F4F9F4FAF4FB1E040D0B4E00E
S11314403ED0670F781F891F9A1FA11D680F791F4F
S11314508A1F911DA11D6A0F711D811D911DA11D62
S113146022D009F468943F91062E000C3019000C28
S1131470000C3019305D3193CEF6CF010895462F1C
S11314804770405D4193B3E00FD0C9F7F6CF462FC4
S11314904F70405D4A3318F0495D31FD405241932D
S11314A002D0A9F7EACFB4E0A695979587957795EA
S11314B06795BA95C9F700976105710508959B0171
S11314C0AC010A2E06945795479537952795BA95FA
S11314D0C9F7620F731F841F951FA01D0895002470
S11314E080FD060E660F11F08695D1F7802D0895C4
S11314F02F923F924F925F926F927F928F929F9220
S1131500AF92BF92CF92DF92EF92FF920F931F930D
S1131510CF93DF93CDB7DEB7CA1BDB0B0FB6F894BE
S1131520DEBF0FBECDBF09942A88398848885F84FE
S11315306E847D848C849B84AA84B984C884DF806F
S1131540EE80FD800C811B81AA81B981CE0FD11D53
S11315500FB6F894DEBF0FBECDBFED010895F89429
S1051560FFCFB7
S10B15628C0AD0072566000085
S9030000FC
